:0300000002004CAF
:100008000000E2FBEAF2802C0000E0FBEAF080242A
:10001800E6B50202EBF62200E2B50202EBF222009C
:10002800E0B50202EBF02230F6E0A88220F5D3EA30
:10003800C6F582228B822230F6E6A88220F5D98086
:01004800CFE8
:0C00A500752900752A00752B0002004927
:030049000203149B
:1000B1007F017E00EE24FD5003020140EFF4F59034
:1000C100AC905304F0E4CCC4540F6CCC540FCC6C02
:1000D100CC30E30244F0ECF4FC740F5CFDBD081B72
:1000E100BF0102800ABF02028009BF040E800875A9
:1000F100820C2275820D2275820E22ED603ABF01BB
:10010100047C018010BF02047C028009BF04047CCE
:100111000380027C00EC1475F003A4FCBD01047B98
:10012100018010BD02047B028009BD04047B0380B1
:10013100027B00EB2CF58222EF2FFF0E0200B5EFC0
:10014100F4F590AE905306F0E4CEC4540F6ECE5445
:100151000FCE6ECE30E30244F0EEF4FE740F5EFF7C
:1001610070047582FF22BF010475820A22BF020456
:1001710075820022BF040475820B227582FF227FE3
:1001810000C2B5E5823392B3F582D2B50FBF080044
:1001910040EF22E5821392A51392A622AF82D2A745
:1001A1008F82120180850882120180C2A722AF824C
:1001B100C007C009C00AC00BC00C90000075F0C890
:1001C10074421205C1AB82AC83ADF0FEE58124FC23
:1001D100F5818B828C838DF0EE12072A85820D8545
:1001E100830E85F00FF510D0078F821201947F06E0
:1001F100EF606C752C0AE4F52DF52EF52F850D8237
:10020100850E83850FF0E510C0071207F0A882A9BB
:1002110083D007752C0AE4F52DF52EF52F850D8277
:10022100850E83850FF0E510C007C001C0001208DC
:100231003F85820D85830E85F00FF510D000D0012A
:10024100D007BF0408748048FD89068004880589A9
:10025100068D088F82C00712019DD0071F80912251
:10026100120194AF118F0675F00AEE84F5087582BC
:1002710007C00712019DD00775F00AEF84AFF08F18
:100281000875820802019DAE82AF834389018E0405
:100291008F051EBEFF011FEC4D6011758CFC758A28
:1002A10017D28C108D0280FBC28C80E2227F05DF89
:1002B100FE228582993099FDC299228582993099D1
:1002C100FDC2998583993099FDC29985F09930993C
:1002D100FDC299F5993099FDC299223098FDC298D5
:1002E100859982223098FDC29885992C3098FDC25B
:1002F10098782DA6993098FDC298782EA6993098B5
:10030100FDC298782FA699852C82852D83852EF0A4
:10031100E52F22438920758DFD758BFDD28E759851
:10032100507582091202B31202E5AC82AD83AEF0C0
:10033100FF900025ECF0EDA3F0EEA3F0EFA3F05356
:1003410089F0438901758C00758A00C2A9D2AFD2A8
:100351008C7F018F82C00712019475080175820C90
:1003610012019D75080075820F12019D7508FF75B8
:10037100820912019D75080775820B12019D75088E
:100381000F75820A12019DD0070FEF24FC50C4752E
:100391001A0A751B28751C427C007D007E007F00B7
:1003A100780079007A007B00051A051B051CC00343
:1003B100C002C001C00074CDC0E014C0E0C0E07450
:1003C1003DC0E08C828D838EF0EF120797AC82AD39
:1003D10083AEF0FFE58124FCF581D000D001D0028D
:1003E100D003C007C006C005C004E4C0E0C0E0C03F
:1003F100E0743FC0E0888289838AF0EB120797A8F6
:1004010082A983AAF0FBE58124FCF581D004D00503
:10041100D006D007851A11758201C007C006C00534
:10042100C004C003C002C001C000120261D000D0EC
:1004310001D002D003D004D005D006D007851B110E
:10044100758202C007C006C005C004C003C002C057
:1004510001C000120261D000D001D002D003D0044B
:10046100D005D006D007851C11758203C007C006D0
:10047100C005C004C003C002C001C000120261D0A7
:1004810000D001D002D003D004D005D006D0078C13
:10049100098D0A8E0B8F0C758201C007C006C0053D
:1004A100C004C003C002C001C0001201AFD000D01F
:1004B10001D002D003D004D005D006D00788098925
:1004C1000A8A0B8B0C758202C007C006C005C004E6
:1004D100C003C002C001C0001201AFD000D001D0E2
:1004E10002D003D004D005D006D007C007C006C093
:1004F10005C004C003C002C001C000C000C001C0EB
:1005010002C0038C828D838EF0EF120797858209DA
:1005110085830A85F00BF50CE58124FCF581758254
:10052100031201AF90012C120288D000D001D00239
:10053100D003D004D005D006D0070203A9F9E52CD9
:10054100452D452E452F60777800C308E52F20E71C
:100551003BE52C25E0F52CE52D33F52DE52E33F586
:100561002EE52F33F52FE582952CE583952DE5F0CA
:10057100952EE9952F50D4C3E52F13F52FE52E13B2
:10058100F52EE52D13F52DE52C13F52CE582952C93
:10059100FCE583952DFDE5F0952EFEE9952F4007AD
:1005A100F98EF08D838C82C3E52F13F52FE52E1381
:1005B100F52EE52D13F52DE52C13F52CD8CEE922DA
:1005C1001206C9BC00030208B2EF60FA30D502B2CC
:1005D100D1E583B4FF030208C8E582B4FF03020832
:1005E100C8258340072482400B0208B2248314509B
:1005F100030208C8F582EA8DF0A4A8F0EA8EF0A4FF
:1006010028F8E435F0F9EB8DF0A428E935F0F9E4A8
:1006110033CA8FF0A429F9EA35F0FAEBF88EF0A489
:1006210029F9EA35F0FAE433FBEC8DF0A429F9EA73
:1006310035F0FAE43BFBE88FF0A42AFAEB35F0FB46
:10064100E433CCFD8EF0A42AFAEB35F0FBE43CFC5C
:10065100ED8FF0A42BFBEC35F0FC20E7031206F73D
:10066100020891FB7A20E4FCFDFEFFE5822582F57C
:1006710082E58333F583E5F033F5F0EB33FB401787
:10068100DAE98042E5822582F582E58333F583E567
:10069100F033F5F0EB33FBEC33FCED33FDEE33FEE1
:1006A100EF33FFEC952CED952DEE952EEF952F4028
:1006B10013EC952CFCED952DFDEE952EFEEF952F6F
:1006C100FF438201DABEEB22AA82AB83A2F7339207
:1006D100D1F5826002D2F7ACF0E58124F9F8E6FDAC
:1006E10008E6FE0886F008E6A2F73392D5F58360A6
:0606F10002D2F7AFF02277
:06007B00E478FFF6D8FD59
:1006F7007804EC7011E58224F8500AF582E4C9CA3F
:10070700CBFCD8EF22EC7820058220E713D58201B5
:1007170022C3E933F9EA33FAEB33FBEC33FCD8EACB
:10072700158222120785C3749E958240397900127B
:1007370008FA30D126E9F42401F582EAF43400F509
:1007470083EBF43400F5F0ECF43400700AE58245ED
:100757008345F0700122E430E70F22EC20E714898B
:10076700828A838BF02230D10AE4F582F583F5F093
:0E07770074802274FFF582F583F5F0747F2202
:100059007900E94400601B7A00900941782975A06C
:1000690000E493F2A308B8000205A0D9F4DAF27506
:02007900A0FFE6
:10078500AA82AB83A2F73392D1F5826002D2F7AC8D
:02079500F02250
:100081007800E84400600A790175A000E4F309D81A
:10009100FC7828E84400600C7901900001E4F0A3A9
:0400A100D8FCD9FAB4
:100797001206C97900E583B58202800D500312085D
:1007A700E0E583C395821208FAE5D0C465D020E15D
:1007B70017EA2DFAEB3EFBEC3FFC500974011208D7
:1007C700FAEC4480FC020891C3EA9DFAEB9EFBEC2D
:1007D7009FFC500FC3E499F9E49AFAE49BFBE49C6D
:1007E700FCB2D11206F7020891F9C2D530E715D24B
:1007F700D5E4C39582F582E49583F583E495F0F516
:10080700F0E499F9E52F30E715E4C3952CF52CE4CE
:10081700952DF52DE4952EF52EE4952FF52FE9125C
:10082700053E30D512E4C39582F582E49583F583BE
:10083700E495F0F5F0E49922FBC2D530E715D2D55F
:10084700E4C39582F582E49583F583E495F0F5F0AA
:10085700E49BFBE52F30E717B2D5E4C3952CF52CC5
:10086700E4952DF52DE4952EF52EE4952FF52FEB38
:1008770012066430D513FBE4C39582F582E49583B1
:10088700F583E495F0F5F0E49B22B98003EA13B30E
:100897004010EA2401FAE43BFBE43CFC50047C8072
:1008A7000582BC000EBB000BBA0008E4F5F0F58327
:1008B700F58222A2D1E582138CF092F78B838A828C
:1008C70022E4F583F58275F080F4A2D11322E4F5D2
:1008D70083F58275F0C0747F22E582C583F582A215
:1008E700D133A2D592D11392D5ECCFFCEBCEFBEA54
:0308F700CDFA2215
:0D004C0075812F12093DE582600302004915
:1008FA006040F82582500274FFF582E824F8501E01
:10090A00CCCBCAF9E4CC24F85014CBCAF9E4CB24F2
:10091A00F8500BCAF9E4CA24F850037900222408D3
:10092A006010F8C3EC13FCEB13FBEA13FAE913F9B2
:07093A00D8F12275820022B2
:00000001FF
