:0300000002004CAF
:100008000000E2FBEAF2802C0000E0FBEAF080242A
:10001800E6B50202EBF62200E2B50202EBF222009C
:10002800E0B50202EBF02230F6E0A88220F5D3EA30
:10003800C6F582228B822230F6E6A88220F5D98086
:01004800CFE8
:0C00A500756A00756B00756C0002004964
:03004900020303AC
:1000B1007F017E00EE24FD5003020140EFF4F5A024
:1000C100ACA05304F0E4CCC4540F6CCC540FCC6CF2
:1000D100CC30E30244F0ECF4FC740F5CFDBD081B72
:1000E100BF0102800ABF02028009BF040E800875A9
:1000F100820C2275820D2275820E22ED603ABF01BB
:10010100047C018010BF02047C028009BF04047CCE
:100111000380027C00EC1475F003A4FCBD01047B98
:10012100018010BD02047B028009BD04047B0380B1
:10013100027B00EB2CF58222EF2FFF0E0200B5EFC0
:10014100F4F5A0AEA05306F0E4CEC4540F6ECE5425
:100151000FCE6ECE30E30244F0EEF4FE740F5EFF7C
:1001610070047582FF22BF010475820A22BF020456
:1001710075820022BF040475820B227582FF22AFB3
:10018100827E00C281EF23540124FF9280EF2FFF72
:10019100D2810EBE080040EB22AF82D2848F821240
:1001A1000180852182120180C28422AF82C007C0F2
:1001B10022C023C024C02590000075F0C8744212EB
:1001C1000A35AB82AC83ADF0FEE58124FCF5818B71
:1001D100828C838DF0EE120B9E8582268583278586
:1001E100F028F529D007EF540124FF9282EF035440
:1001F1000124FF92837F06EF606875750AE4F57646
:10020100F577F5788526828527838528F0E529C04D
:100211000712116FA882A98375750AE4F576F5773F
:10022100F5788526828527838528F0E529C001C0D8
:100231000012129B85822685832785F028F529D017
:1002410000D001D007BF0408748048FD89068004EE
:10025100880589068D218F82C00712019AD0071F58
:10026100809522E582FF540124FF9282EF0354011D
:1002710024FF9283E52A249C5003752A63AF2A8FB9
:100281000675F00AEE84F521758207C00712019AFE
:10029100D00775F00AEF84AFF08F21758208020153
:1002A1009A8582993099FDC299228582993099FD6A
:1002B100C2998583993099FDC29985F0993099FD4C
:1002C100C299F5993099FDC299223098FDC298855D
:1002D1009982223098FDC2988599753098FDC2980F
:1002E1007876A6993098FDC2987877A6993098FDCE
:1002F100C2987878A6998575828576838577F0E5A9
:100301007822438920758DFD758BFDD28E759850AD
:100311007582091202A21202D485824F858350850B
:10032100F051F5525389F0438901758C00758A00AB
:10033100C2A9D2AFD28C7F01EF540124FF9282EF88
:1003410003540124FF928375210175820CC00712A9
:10035100019A75210075820F12019A7521FF75822C
:100361000912019A75210775820B12019A75210FE5
:1003710075820A12019AD0070FEF24FC50BA7582D8
:10038100201202A21202D485824B85834C85F04D46
:10039100F54E1202D485822B85832C85F02DF52E06
:1003A1001202D485822F85833085F031F532120215
:1003B100D485823385833485F035F5361202D485B0
:1003C100823785833885F039F53A1202D485823B2C
:1003D10085833C85F03DF53E1202D485823F8583BD
:1003E1004085F041F5421202D485824385834485DC
:1003F100F045F5461202D485824785834885F04948
:10040100F54AC04BC04CC04DC04E90000075F0F095
:1004110074411209A785826685836785F068F5694D
:10042100E58124FCF581E4C0E0C0E07440C0E0C097
:10043100E08566828567838568F0E569120E5AAFAB
:1004410082E58124FCF581EF600BE4F566F56775C3
:100451006840756940C066C067C068C069856682CA
:100461008567838568F0E569120A35AC82AD83AE94
:10047100F0FFE58124FCF581C004C005C006C0077A
:1004810090000075F04074C112186785826D8583F4
:100491006E85F06FF570E58124FCF581C066C0675B
:1004A100C068C06990000074C0F5F01218678582B9
:1004B1007185837285F073F574E58124FCF581C043
:1004C1002BC02CC02DC02E856D82856E83856FF06B
:1004D100E570120A35A882A983AAF0FBE58124FC04
:1004E100F581C003C002C001C000C033C034C035B3
:1004F100C0368571828572838573F0E574120A3581
:10050100AC82AD83AEF0FFE58124FCF581D000D053
:1005110001D002D003C004C005C006C0078882898B
:10052100838AF0EB1210BD85825E85835F85F06062
:10053100F561E58124FCF581C02FC030C031C032A6
:10054100856D82856E83856FF0E570120A35AC8208
:10055100AD83AEF0FFE58124FCF581C007C006C084
:1005610005C004C037C038C039C03A857182857270
:10057100838573F0E574120A35A882A983AAF0FB7A
:10058100E58124FCF581D004D005D006D007C00058
:10059100C001C002C0038C828D838EF0EF1210BDAA
:1005A100AC82AD83AEF0FFE58124FCF581C04FC084
:1005B10050C051C0528C828D838EF0EF1209A785F5
:1005C100826285836385F064F565E58124FCF581AC
:1005D100C05EC05FC060C061855E82855F838560EB
:1005E100F0E561120A35AC82AD83AEF0FFE58124FE
:1005F100FCF581C007C006C005C004C062C063C06D
:1006010064C0658562828563838564F0E565120A4D
:1006110035A882A983AAF0FBE58124FCF581D004E9
:10062100D005D006D007C000C001C002C0038C8233
:100631008D838EF0EF1210BDAC82AD83AEF0FFE57D
:100641008124FCF5818C828D838EF0EF120BF9AC45
:1006510082AD83AEF0FFC043C044C045C0468C822A
:100661008D838EF0EF12186785825385835485F050
:1006710055F556E58124FCF5818553F0E55442F0AA
:10068100E55542F0E556547F45F070030208DBACB6
:1006910062AD63AE64AF65A85EA95FAA60AB618C11
:1006A100088D098E0AEFB2E7F50B888289838AF0FB
:1006B100EB120E8AAC82AD83AEF0FFC03BC03CC0F2
:1006C1003DC03E8C828D838EF0EF1209A7AC82ADC6
:1006D10083AEF0FFE58124FCF581C007C006C005AB
:1006E100C004C004C005C006C007900FDB75F04907
:1006F1007440120E5AAB82E58124FCF581D004D0FE
:1007010005D006D007EB602974DBC0E0740FC0E0B0
:1007110074C9C0E07440C0E08C828D838EF0EF120A
:1007210009A7AC82AD83AEF0FFE58124FCF58180A1
:100731005CC007C006C005C00474DBC0E0740FC014
:10074100E07449C0E074C0C0E08C828D838EF0EF0C
:10075100120E5AAB82E58124FCF581D004D005D07C
:1007610006D007EB602774DBC0E0740FC0E074C9EA
:10077100C0E07440C0E08C828D838EF0EF1210BD1A
:10078100AC82AD83AEF0FFE58124FCF5818C828DD6
:10079100838EF0EFC007C006C005C004121116A871
:1007A10082A983AAF0FBC000C001C002C00390CCA3
:1007B100CD75F04C743F120A35A882A983AAF0FBCB
:1007C100E58124FCF581C047C048C049C04A888200
:1007D10089838AF0EB120A35A882A983AAF0FBE586
:1007E1008124FCF581C053C054C055C0568882890C
:1007F100838AF0EB120A35A882A983AAF0FBE5816E
:1008010024FCF581888289838AF0EB120BF9A88296
:10081100A983AAF0FBD004D005D006D007C003C03D
:1008210002C001C000E4C0E0C0E0C0E0C0E08C82D2
:100831008D838EF0EF120E5AAF82E58124FCF58193
:10084100D000D001D002D003EF60067EFF7FFF8091
:10085100047E017F008E828F83C003C002C001C06D
:10086100001212EDAC82AD83AEF0FFD000D001D00A
:1008710002D003C004C005C006C007888289838AEC
:10088100F0EB120A35AC82AD83AEF0FFE58124FCBA
:10089100F581C004C005C006C007853F828540833D
:1008A1008541F0E5421209A7AC82AD83AEF0FFE5C8
:1008B1008124FCF581C047C048C049C04A8C828D63
:1008C100838EF0EF12186785825785835885F0591A
:1008D100F55AE58124FCF5818009E4F557F558F5D1
:1008E10059F55A7582211202A28553828554838556
:1008F10055F0E5561202AB8557828558838559F02C
:10090100E55A1202AB855B2A758201120264855C8D
:100911002A758202120264855D2A758203120264BD
:10092100856622856723856824856925758201127C
:1009310001AC1200B1AF82BFFF06756C0002037FEC
:10094100E56C600302037F756C01BF0A06756A00DE
:1009510002037FBF0B29E56B700302037F7401B5AE
:100961006B05856A5B80127402B56B05856A5C80D4
:10097100087403B56B03856A5D756B0002037FBF65
:100981000C06756B0102037FBF0D06756B02020336
:100991007FBF0E06756B0302037FE56B70030203D5
:1009A1007F8F6A02037FA8811818C6B2E7C60210BA
:1009B100BDF9E57545764577457860777800C308D8
:1009C100E57820E73BE57525E0F575E57633F576C5
:1009D100E57733F577E57833F578E5829575E58345
:1009E1009576E5F09577E9957850D4C3E57813F5D8
:1009F10078E57713F577E57613F576E57513F575F3
:100A0100E5829575FCE5839576FDE5F09577FEE940
:100A110095784007F98EF08D838C82C3E57813F5C4
:100A210078E57713F577E57613F576E57513F575C2
:100A3100D8CEE922120B3DBC000302181FEF60FA69
:100A410030D502B2D1E583B4FF03021835E582B493
:100A5100FF03021835258340072482400B02181F2B
:100A61002483145003021835F582EA8DF0A4A8F00E
:100A7100EA8EF0A428F8E435F0F9EB8DF0A428E92A
:100A810035F0F9E433CA8FF0A429F9EA35F0FAEB2D
:100A9100F88EF0A429F9EA35F0FAE433FBEC8DF095
:100AA100A429F9EA35F0FAE43BFBE88FF0A42AFA2D
:100AB100EB35F0FBE433CCFD8EF0A42AFAEB35F0F4
:100AC100FBE43CFCED8FF0A42BFBEC35F0FC20E7C4
:100AD10003120B6B0217FEFB7A20E4FCFDFEFFE51F
:100AE100822582F582E58333F583E5F033F5F0EB7A
:100AF10033FB4017DAE98042E5822582F582E583FE
:100B010033F583E5F033F5F0EB33FBEC33FCED33F8
:100B1100FDEE33FEEF33FFEC9575ED9576EE9577AF
:100B2100EF95784013EC9575FCED9576FDEE957794
:100B3100FEEF9578FF438201DABEEB22AA82AB83F6
:100B4100A2F73392D1F5826002D2F7ACF0E58124AD
:100B5100F9F8E6FD08E6FE0886F008E6A2F733920A
:0A0B6100D5F5836002D2F7AFF02251
:06007B00E478FFF6D8FD59
:100B6B007804EC7011E58224F8500AF582E4C9CAC6
:100B7B00CBFCD8EF22EC7820058220E713D582013D
:100B8B0022C3E933F9EA33FAEB33FBEC33FCD8EA53
:100B9B00158222120E48C3749E9582403979001239
:100BAB00198F30D126E9F42401F582EAF43400F5EB
:100BBB0083EBF43400F5F0ECF43400700AE5824575
:100BCB008345F0700122E430E70F22EC20E7148913
:100BDB00828A838BF02230D10AE4F582F583F5F01B
:0E0BEB0074802274FFF582F583F5F0747F228A
:100059007900E94400601B7A00901A12780175A0B2
:1000690000E493F2A308B8000205A0D9F4DAF27506
:02007900A0FFE6
:100BF900C014858114AC82AD83AEF0FFE581240A6F
:100C0900F5818CF0ED42F0EE42F0EF547F45F07043
:100C19000A8C828D838EF0EF020E42C007C006C097
:100C290005C004E4C0E0C0E07480C0E0743FC0E0E7
:100C39008C828D838EF0EF1219D2AB82E58124FC70
:100C4900F581D004D005D006D007EB600B900000E9
:100C590075F080743F020E42C007C006C005C0048B
:100C6900E4C0E0C0E0C0E0C0E08C828D838EF0EF8C
:100C7900120E5AAB82E58124FCF581D004D005D04F
:100C890006D007EB600F751521751600900000E47A
:100C9900F5F0020E42E5142409F5757576007577AD
:100CA900408C828D838EF0EF121769C8E5142405F4
:100CB900C8A68208A68308A6F008F6E5142405F854
:100CC900E6C0E008E6C0E008E6C0E008E6C0E0905B
:100CD90014BA75F017743F120A35AA82AB83AEF0C5
:100CE900FFE58124FCF58174A8C0E004C0E074D557
:100CF900C0E0743EC0E08A828B838EF0EF1210BD93
:100D0900A81408A68208A68308A6F008F6E5812497
:100D1900FCF581A81408E6C0E008E6C0E008E6C0D2
:100D2900E008E6C0E0E5142405F886820886830811
:100D390086F008E6121867AA82AB83AEF0FFE58158
:100D490024FCF581C002C003C006C007A8140886A8
:100D5900820886830886F008E61210BDAF82AE834A
:100D6900ADF0FCE58124FCF5817575FE7576FF8F84
:100D7900828E838DF0ECC007C006C005C004121135
:100D8900BEA81408A68208A68308A6F008F6E514EA
:100D99002405F886820886830886F008E612186713
:100DA900AC82AD83AEF0FFE58124FCF581C004C0BF
:100DB90005C006C007A8140886820886830886F03D
:100DC90008E61210BDAC82AD83AEF0FFE58124FCCC
:100DD900F581E5142409F8E630E02BC004C005C00C
:100DE90006C0079004F375F035743F120A35AC82DA
:100DF900AD83AEF0FFE58124FCF581E5142409F803
:100E090006B600020806757502757600E514240910
:100E1900F88682088683C007C006C005C004121977
:100E290057858275858376D004D005D006D0078C86
:100E3900828D838EF0EF1211BE851481D01422AAFF
:100E490082AB83A2F73392D1F5826002D2F7ACF07C
:100E590022FFA8811818121270D2D133E640073048
:100E6900E70B7582002220E70675820122C2D112A2
:100E79001252E97003F5822220D101B3E433F582DD
:100E89002285820C85830D85F00EF50F850CF0E522
:100E99000D42F0E50E42F0E50F547F45F0701F85D5
:100EA90008F0E50942F0E50A42F0E50B547F45F008
:100EB900700C751521F516900000E4F5F0228508EF
:100EC90082850983850AF0E50B121116A882A98388
:100ED900AAF0FB850C82850D83850EF0E50FC00312
:100EE900C002C001C000121116AC82AD83AEF0FF82
:100EF900D000D001D002D003C004C005C006C0078D
:100F0900888289838AF0EB120E5AE58124FCF581E7
:100F1900E58224FF92005003020FF6C008C009C001
:100F29000AC00B850C82850D83850EF0E50F12181A
:100F390067AC82AD83AEF0FFE58124FCF5818C823C
:100F49008D838EF0EF1212FAAC82AD83AEF0FFC042
:100F590007C006C005C004E4C0E0C0E0C0E0C0E0CE
:100F6900850882850983850AF0E50B120E5AAB8242
:100F7900E58124FCF581D004D005D006D007EB70BB
:100F89000302108CC007C006C005C004E4C0E0C05D
:100F9900E0C0E0C0E0850C82850D83850EF0E50F89
:100FA900120E5AE58124FCF581D004D005D006D073
:100FB90007E58224FF9200400A78DB790F7A497BA2
:100FC90040800878DB790F7A497BC0C000C001C036
:100FD90002C0038C828D838EF0EF1210BDAC82ADFE
:100FE90083AEF0FFE58124FCF58102108CC00CC0B2
:100FF9000DC00EC00F850882850983850AF0E50BAF
:10100900121867A882A983AAF0FBE58124FCF5815F
:10101900888289838AF0EB1212FAA882A983AAF03E
:10102900FB881089118A12EBB2E7F513E4C0E0C01E
:10103900E0C0E0C0E0850C82850D83850EF0E50FE8
:10104900120E5AAB82E58124FCF581EB600A78DB4C
:10105900790F7AC97BBF800878DB790F7AC97B3F22
:10106900C000C001C002C0038510828511838512AA
:10107900F0E5131210BDAC82AD83AEF0FFE581241B
:10108900FCF5818C828D838EF0EF227A10E4FBFCD3
:10109900E58225E0F582E58333F583EB33FBEC3319
:1010A900FCEB9575F5F0EC95764006FCABF04382C8
:0410B90001DADD2259
:100081007800E84400600A790175A000E4F309D81A
:10009100FC7800E84400600C7900900001E4F0A3D2
:0400A100D8FCD9FAB4
:1010BD00120B3D7900E583B58202800D50031218A5
:1010CD004DE583C3958212198FE5D0C465D020E11B
:1010DD0017EA2DFAEB3EFBEC3FFC50097401121997
:1010ED008FEC4480FC0217FEC3EA9DFAEB9EFBECED
:1010FD009FFC500FC3E499F9E49AFAE49BFBE49C3E
:10110D00FCB2D1120B6B0217FEC014858114AC8298
:10111D00AD83AEF0FFE5812404F581AB140B8B019B
:10112D00A70409A70509A70609A7078B018B008648
:10113D000408860508860608860753077FA7040955
:10114D00A70509A70609A7078B01870409870509C4
:10115D0087060987078C828D838EF0EF851481D0E9
:10116D001422F9C2D530E715D2D5E4C39582F582A4
:10117D00E49583F583E495F0F5F0E499F9E578309D
:10118D00E715E4C39575F575E49576F576E49577F1
:10119D00F577E49578F578E91209B230D512E4C304
:1011AD009582F582E49583F583E495F0F5F0E49965
:1011BD0022AC82AD83AEF0FF8C778D788E798F7AED
:1011CD00AC77AD78AE79AF7A8E04EFA2E7CC33CCA5
:1011DD0033CC540130E00244FE3395E08C7B757CBA
:1011ED0000757D00757E00AA75E576FB3395E0FEF2
:1011FD00FFEA257BFAEB357CEE357DEF357E7B0006
:10120D008A7DEB5401A2E0C57D13C57D13C57DF527
:10121D007E757B00757C00AC77AD78AE79AF7A5377
:10122D00067F530780E57D4206E57E42078C778D6C
:10123D00788E798F7AAC77AD78AE79AF7A8C828DE6
:10124D00838EF0EF227901AA82E68F82B582131880
:10125D00E6B5F00E18E6B5830918E68A82B5820266
:10126D00790022B4800FE5F0700AE5837006E582FF
:10127D0070027F00EFB6801518B6001018B6000B7F
:10128D0018B6000608080876002208080822FBC2D6
:10129D00D530E715D2D5E4C39582F582E49583F573
:1012AD0083E495F0F5F0E49BFBE57830E717B2D5D4
:1012BD00E4C39575F575E49576F576E49577F57750
:1012CD00E49578F578EB120AD830D513FBE4C39585
:1012DD0082F582E49583F583E495F0F5F0E49B22A5
:1012ED00AC83AB827A007900748E021933C01485F9
:1012FD008114C082C083C0F0C0E0E581240EF58169
:10130D00E5142411F8E4F608F6A814088682088678
:10131D00830886F008E6121116C8E514240DC8A638
:10132D008208A68308A6F008F6E514240DF8E6C099
:10133D00E008E6C0E008E6C0E008E6C0E090000086
:10134D0075F080743F120E5AAB82E58124FCF58155
:10135D00EB603FE514240DF8E6C0E008E6C0E008B8
:10136D00E6C0E008E6C0E090000075F080743F1222
:10137D001867C8E514240DC8A68208A68308A6F030
:10138D0008F6E58124FCF581E5142411F8760208B0
:10139D007600E514240DF8E6C0E008E6C0E008E6A6
:1013AD00C0E008E6C0E09030A375F089743E120EDF
:1013BD005AAB82E58124FCF581EB70030214BAE58A
:1013CD0014240DF8E6C0E008E6C0E008E6C0E00829
:1013DD00E6C0E09067AF75F03B743F120A35AA8204
:1013ED00AB83AEF0FFE58124FCF581E4C0E0C0E005
:1013FD007480C0E0743FC0E08A828B838EF0EF1260
:10140D0009A7AC82AD83AEF0FFE58124FCF581E543
:10141D0014240DF8E6C0E008E6C0E008E6C0E008D8
:10142D00E6C0E08C828D838EF0EF1210BDC8E514FE
:10143D002405C8A68208A68308A6F008F6E581242F
:10144D00FCF58174D7C0E074B3C0E074DDC0E07406
:10145D003FC0E0E514240DF886820886830886F0E7
:10146D0008E61210BDAA82AB83AEF0FFE58124FC25
:10147D00F581C002C003C006C007E5142405F88637
:10148D00820886830886F008E6121867C8E51424DA
:10149D000DC8A68208A68308A6F008F6E58124FCEF
:1014AD00F581E5142411F806B600020806E51424AA
:1014BD000DF886820886830886F008E6121116ACB0
:1014CD0082AD83AEF0FFE4C0E0C0E07480C0E07494
:1014DD0039C0E08C828D838EF0EF120E5AAF82E50B
:1014ED008124FCF581EF601BE514240DF8E514242F
:1014FD0009F9E6F708E609F708E609F708E609F736
:10150D000216AEE514240DF8E6C0E008E6C0E008CA
:10151D00E6C0E008E6C0E0E514240DF886820886F2
:10152D00830886F008E6120A35AF82AE83ADF0FC73
:10153D00E58124FCF581C007C006C005C004C007C5
:10154D00C006C005C00490869175F05074BD120A96
:10155D0035C8E5142405C8A68208A68308A6F00898
:10156D00F6E58124FCF58174F6C0E07410C0E074DA
:10157D00F1C0E074BEC0E0E5142405F8868208864B
:10158D00830886F008E61210BDC8E5142405C8A628
:10159D008208A68308A6F008F6E58124FCF581D023
:1015AD0004D005D006D007C007C006C005C004C0D2
:1015BD0007C006C005C004E5142405F88682088618
:1015CD00830886F008E6120A35C8E5142405C8A676
:1015DD008208A68308A6F008F6E58124FCF581E5CE
:1015ED0014240DF8E6C0E008E6C0E008E6C0E00807
:1015FD00E6C0E0E5142405F886820886830886F0A7
:10160D0008E6120A35C8E5142405C8A68208A68383
:10161D0008A6F008F6E58124FCF581D004D005D0AC
:10162D0006D00774D3C0E074CCC0E074B4C0E074CD
:10163D003FC0E08F828E838DF0EC1210BDAF82AE75
:10164D0083ADF0FCE58124FCF581C007C006C00523
:10165D00C004E5142405F886820886830886F00800
:10166D00E6121867AF82AE83ADF0FCE58124FCF580
:10167D0081C007C006C005C004E514240DF886829C
:10168D000886830886F008E61210BDC8E514240903
:10169D00C8A68208A68308A6F008F6E58124FCF505
:1016AD0081E5142411F8C374019674800886F063E3
:1016BD00F08095F0500FE5142409F8E608E608E6E9
:1016CD0008E6B2E7F6E5142411F8E626FA08E63343
:1016DD00FBEA2AFAEB33FBEA2402F582EB341AF526
:1016ED0083E493FAA3E493FBA3E493FEA3E493FFB3
:1016FD00C002C003C006C007E5142409F88682089D
:10170D0086830886F008E61210BDAC82AD83AEF07C
:10171D00FFE58124FCF581C007C006C005C004E4C7
:10172D00C0E0C0E0C0E0C0E0A8140886820886834F
:10173D000886F008E6120E5AAB82E58124FCF5818D
:10174D00D004D005D006D007EB6004EFB2E7FF8CD4
:0C175D00828D838EF0EF851481D0142261
:101A020000000000920A063FDB0FC93F920A863FA0
:10176900AC82AD83AEF0FF8C788D798E7A8F7BACAD
:1017790078AD79AE7AAF7B8E04EFA2E7CC33CC3368
:10178900CC540130E00244FE3395E0E4FDFEFFEC69
:101799002482F57CED34FFF57DEE34FFF57EEF34E0
:1017A900FFF57FAA75AB76AF77AC7CAD7D8A828B6E
:1017B900838FF0EC1219E3A3ED1219E3AC78AD793C
:1017C900AE7AAF7B53067F5307808C788D798E7AFA
:1017D9008F7BAC78AD79AE7AAF7B43073F8C788D40
:1017E900798E7A8F7BAC78AD79AE7AAF7B8C828D2E
:1017F900838EF0EF22B98003EA13B34010EA240183
:10180900FAE43BFBE43CFC50047C800582BC000EFE
:10181900BB000BBA0008E4F5F0F583F58222A2D1EA
:10182900E582138CF092F78B838A8222E4F583F5A3
:101839008275F080F4A2D11322E4F583F58275F064
:10184900C0747F22E582C583F582A2D133A2D592E5
:10185900D11392D5ECCFFCEBCEFBEACDFA22120BD9
:101869003D30D502B2D1BF0009BC000302184202C3
:101879001835BC000302181FE583B4FF0BE582B4D9
:10188900FF0302184202181FE582B4FF030218354C
:10189900C395835007247F400B02181F24801450DE
:1018A90003021835F582C3ED9AEE9BEF9C401115A2
:1018B90082C3EA33F9EB33FAEC33FBE433FC8005FA
:1018C900E4CCCBCAF9C08275F019C3E99DEA9EEB55
:1018D9009FEC9400D5F002802D400EE99DF9EA9E17
:1018E900FAEB9FFBEC9400FCC3B3E833F8E58233D1
:1018F900F582E58333F583C3E933F9EA33FAEB3348
:10190900FBEC33FC80C4B3E4F938FAE43582FBE438
:101919003583FCD082500405827C80120B6B02183F
:0119290016A7
:0D004C0075817F1219FEE5826003020049F4
:10192A00FCABF0AA83A982749EF582C2D1EC30E79F
:10193A0016D2D1E9F42401F9EAF43400FAEBF434CA
:10194A0000FBECF43400FC120B6B0217FEC2D5E567
:10195A008330E70DD2D5E4C39582F582E49583F509
:10196A0083E57630E70DB2D5E4C39575F575E49550
:10197A0076F57612109430D50BE4C39582F582E49D
:10198A009583F583226040F82582500274FFF58220
:10199A00E824F8501ECCCBCAF9E4CC24F85014CB76
:1019AA00CAF9E4CB24F8500BCAF9E4CA24F8500364
:1019BA0079002224086010F8C3EC13FCEB13FBEA4D
:1019CA0013FAE913F9D8F122FFA881181812127034
:1019DA00121252E96401F5822220F71130F61388B7
:1019EA0083A88220F509F6A8837583002280FEF277
:0819FA0080F5F0227582002245
:00000001FF
