:0300000002004CAF
:200008000000E2FBEAF2802C0000E0FBEAF08024E6B50202EBF62200E2B50202EBF22200DE
:20002800E0B50202EBF02230F6E0A88220F5D3EAC6F582228B822230F6E6A88220F5D980EE
:01004800CFE8
:0C00A500754200754300754400020049DC
:030049000203109F
:2000B1007F017E00EE24FD5003020140EFF4F590AC905304F0E4CCC4540F6CCC540FCC6CF7
:2000D100CC30E30244F0ECF4FC740F5CFDBD081BBF0102800ABF02028009BF040E800875FC
:2000F100820C2275820D2275820E22ED603ABF01047C018010BF02047C028009BF04047C8B
:200111000380027C00EC1475F003A4FCBD01047B018010BD02047B028009BD04047B03806B
:20013100027B00EB2CF58222EF2FFF0E0200B5EFF4F590AE905306F0E4CEC4540F6ECE5447
:200151000FCE6ECE30E30244F0EEF4FE740F5EFF70047582FF22BF010475820A22BF020434
:2001710075820022BF040475820B227582FF227F00C2B5E5823392B3F582D2B50FBF0800A9
:2001910040EF22E5821392A51392A622AF82D2A78F82120180852182120180C2A722AF821A
:2001B100C007C022C023C024C02590000075F0C87442120B2EAB82AC83ADF0FEE58124FC9E
:2001D100F5818B828C838DF0EE120C9785822785832885F029F52AD0078F821201947F062D
:2001F100EF606C754E0AE4F54FF550F5518527828528838529F0E52AC007121268A882A982
:2002110083D007754E0AE4F54FF550F5518527828528838529F0E52AC007C001C00012137B
:200231009485822785832885F029F52AD000D001D007BF0408748048FD8906800488058959
:20025100068D218F82C00712019DD0071F8091AF268F0675F00AEE84F521758207C0071212
:20027100019DD00775F00AEF84AFF08F2175820802019D8582993099FDC299228582993075
:2002910099FDC2998583993099FDC29985F0993099FDC299F5993099FDC299223098FDC213
:2002B10098859982223098FDC29885994E3098FDC298784FA6993098FDC2987850A69930CD
:2002D10098FDC2987851A699854E82854F838550F0E55122AE82AF834389018E048F051EDA
:2002F100BEFF011FEC4D6011758CFC758A17D28C108D0280FBC28C80E2227F05DFFE227511
:200311004500438920758DFD758BFDD28E7598507582091202841202B6AB82AC83ADF0FE89
:20033100900025EBF0ECA3F0EDA3F0EEA3F05389F0438901758C00758A00C2A9D2AFD28CB9
:200351007E018E82C00612019475210175820C12019D75210075820F12019D7521FF75826E
:200371000912019D75210775820B12019D75210F75820A12019DD0060EEE24FC50C40545BE
:200391007582201202841202B6AB82AC83ADF0FE900021EBF0ECA3F0EDA3F0EEA3F01202BC
:2003B100B6AB82AC83ADF0FE900001EBF0ECA3F0EDA3F0EEA3F01202B6AB82AC83ADF0FED2
:2003D100900005EBF0ECA3F0EDA3F0EEA3F01202B6AB82AC83ADF0FE900009EBF0ECA3F068
:2003F100EDA3F0EEA3F01202B6AB82AC83ADF0FE90000DEBF0ECA3F0EDA3F0EEA3F012021E
:20041100B6AB82AC83ADF0FE900011EBF0ECA3F0EDA3F0EEA3F01202B6AB82AC83ADF0FE61
:20043100900015EBF0ECA3F0EDA3F0EEA3F01202B6AB82AC83ADF0FE900019EBF0ECA3F0E7
:20045100EDA3F0EEA3F01202B6AB82AC83ADF0FE90001DEBF0ECA3F0EDA3F0EEA3F0900031
:2004710021E0C0E0A3E0C0E0A3E0C0E0A3E0C0E090000075F0F07441120AA085823E8583BE
:200491003F85F040F541E58124FCF581E4C0E0C0E07440C0E0C0E0853E82853F838540F0CC
:2004B100E541120F53AE82E58124FCF581EE600BE4F53EF53F754040754140C03EC03FC019
:2004D10040C041853E82853F838540F0E541120B2EAB82AC83ADF0FEE58124FCF581C00362
:2004F100C004C005C00690000075F04074C112196085824685834785F048F549E58124FC8A
:20051100F581C03EC03FC040C04190000074C0F5F012196085824A85834B85F04CF54DE596
:200531008124FCF581900001E0C0E0A3E0C0E0A3E0C0E0A3E0C0E08546828547838548F0C0
:20055100E549120B2EA882A983AAF0FFE58124FCF581C007C002C001C000900009E0C0E003
:20057100A3E0C0E0A3E0C0E0A3E0C0E0854A82854B83854CF0E54D120B2EAB82AC83ADF026
:20059100FEE58124FCF581D000D001D002D007C003C004C005C006888289838AF0EF121152
:2005B100B685823685833785F038F539E58124FCF581900005E0C0E0A3E0C0E0A3E0C0E0C6
:2005D100A3E0C0E08546828547838548F0E549120B2EAC82AD83AEF0FFE58124FCF581C05E
:2005F10007C006C005C00490000DE0C0E0A3E0C0E0A3E0C0E0A3E0C0E0854A82854B8385E5
:200611004CF0E54D120B2EA882A983AAF0FBE58124FCF581D004D005D006D007C000C00152
:20063100C002C0038C828D838EF0EF1211B6AC82AD83AEF0FFE58124FCF581900025E0C074
:20065100E0A3E0C0E0A3E0C0E0A3E0C0E08C828D838EF0EF120AA085823A85833B85F03CC4
:20067100F53DE58124FCF581C036C037C038C0398536828537838538F0E539120B2EAC829D
:20069100AD83AEF0FFE58124FCF581C007C006C005C004C03AC03BC03CC03D853A82853B7B
:2006B10083853CF0E53D120B2EA882A983AAF0FBE58124FCF581D004D005D006D007C0008B
:2006D100C001C002C0038C828D838EF0EF1211B6AC82AD83AEF0FFE58124FCF5818C828DCD
:2006F100838EF0EF120CF2AC82AD83AEF0FF900019E0C0E0A3E0C0E0A3E0C0E0A3E0C0E05C
:200711008C828D838EF0EF12196085822B85832C85F02DF52EE58124FCF581852BF0E52CDA
:2007310042F0E52D42F0E52E547F45F070030209B5AC3AAD3BAE3CAF3DA836A937AA38ABF5
:20075100398C088D098E0AEFB2E7F50B888289838AF0EB120F83AC82AD83AEF0FF9000114A
:20077100E0C0E0A3E0C0E0A3E0C0E0A3E0C0E08C828D838EF0EF120AA0AC82AD83AEF0FF3D
:20079100E58124FCF581C007C006C005C004C004C005C006C007900FDB75F0497440120F23
:2007B10053AB82E58124FCF581D004D005D006D007EB602974DBC0E0740FC0E074C9C0E0F3
:2007D1007440C0E08C828D838EF0EF120AA0AC82AD83AEF0FFE58124FCF581805CC007C013
:2007F10006C005C00474DBC0E0740FC0E07449C0E074C0C0E08C828D838EF0EF120F53AB6C
:2008110082E58124FCF581D004D005D006D007EB602774DBC0E0740FC0E074C9C0E07440DE
:20083100C0E08C828D838EF0EF1211B6AC82AD83AEF0FFE58124FCF5818C828D838EF0EF21
:20085100C007C006C005C00412120FA882A983AAF0FBC000C001C002C00390CCCD75F04C73
:20087100743F120B2EA882A983AAF0FBE58124FCF58190001DE0C0E0A3E0C0E0A3E0C0E00F
:20089100A3E0C0E0888289838AF0EB120B2EA882A983AAF0FBE58124FCF581C02BC02CC0E0
:2008B1002DC02E888289838AF0EB120B2EA882A983AAF0FBE58124FCF581888289838AF0CF
:2008D100EB120CF2A882A983AAF0FBD004D005D006D007C003C002C001C000E4C0E0C0E0A1
:2008F100C0E0C0E08C828D838EF0EF120F53AF82E58124FCF581D000D001D002D003EF60E6
:20091100067EFF7FFF80047E017F008E828F83C003C002C001C0001213E6AC82AD83AEF014
:20093100FFD000D001D002D003C004C005C006C007888289838AF0EB120B2EAC82AD83AE79
:20095100F0FFE58124FCF581900015E0F8A3E0F9A3E0FAA3E0FBC004C005C006C007888287
:2009710089838AF0EB120AA0AC82AD83AEF0FFE58124FCF58190001DE0C0E0A3E0C0E0A34F
:20099100E0C0E0A3E0C0E08C828D838EF0EF12196085822F85833085F031F532E58124FCCC
:2009B100F5818009E4F52FF530F531F532758221120284852B82852C83852DF0E52E1202CE
:2009D1008D852F828530838531F0E53212028DE54524F5503C754500853E22853F23854093
:2009F100248541258533267582011201AFE4F522F523F524F5258534267582021201AFE47B
:200A1100F522F523F524F5258535267582031201AF1200B1AF82BFFF0675440002038FE5DD
:200A310044600302038F754401BF0A0675420002038FBF0B2CE543700302038F7401B54304
:200A51000585423380127402B5430585423480087403B5430385423575420075430002031C
:200A71008FBF0C0675430102038FBF0D0675430202038FBF0E0675430302038FE5437003DB
:0F0A910002038FE54275F00AA42FF54202038F8E
:0B0AA000A8811818C6B2E7C60211B604
:200AAB00F9E54E454F4550455160777800C308E55120E73BE54E25E0F54EE54F33F54FE5A3
:200ACB005033F550E55133F551E582954EE583954FE5F09550E9955150D4C3E55113F551FF
:200AEB00E55013F550E54F13F54FE54E13F54EE582954EFCE583954FFDE5F09550FEE99585
:200B0B00514007F98EF08D838C82C3E55113F551E55013F550E54F13F54FE54E13F54ED8D2
:030B2B00CEE922EE
:200B2E00120C36BC0003021918EF60FA30D502B2D1E583B4FF0302192EE582B4FF030219EF
:200B4E002E258340072482400B021918248314500302192EF582EA8DF0A4A8F0EA8EF0A4C9
:200B6E0028F8E435F0F9EB8DF0A428E935F0F9E433CA8FF0A429F9EA35F0FAEBF88EF0A4D6
:200B8E0029F9EA35F0FAE433FBEC8DF0A429F9EA35F0FAE43BFBE88FF0A42AFAEB35F0FB7E
:200BAE00E433CCFD8EF0A42AFAEB35F0FBE43CFCED8FF0A42BFBEC35F0FC20E703120C640B
:030BCE000218F713
:200BD100FB7A20E4FCFDFEFFE5822582F582E58333F583E5F033F5F0EB33FB4017DAE9805D
:200BF10042E5822582F582E58333F583E5F033F5F0EB33FBEC33FCED33FDEE33FEEF33FF8C
:200C1100EC954EED954FEE9550EF95514013EC954EFCED954FFDEE9550FEEF9551FF438225
:050C310001DABEEB2218
:200C3600AA82AB83A2F73392D1F5826002D2F7ACF0E58124F9F8E6FD08E6FE0886F008E621
:0E0C5600A2F73392D5F5836002D2F7AFF022F9
:06007B00E478FFF6D8FD59
:200C64007804EC7011E58224F8500AF582E4C9CACBFCD8EF22EC7820058220E713D582018F
:130C840022C3E933F9EA33FAEB33FBEC33FCD8EA1582229D
:200C9700120F41C3749E958240397900121A8830D126E9F42401F582EAF43400F583EBF440
:200CB7003400F5F0ECF43400700AE582458345F0700122E430E70F22EC20E71489828A8334
:1B0CD7008BF02230D10AE4F582F583F5F074802274FFF582F583F5F0747F2230
:200059007900E94400601B7A00901B0B782975A000E493F2A308B8000205A0D9F4DAF275FF
:02007900A0FFE6
:200CF200C014858114AC82AD83AEF0FFE581240AF5818CF0ED42F0EE42F0EF547F45F070CD
:200D12000A8C828D838EF0EF020F3BC007C006C005C004E4C0E0C0E07480C0E0743FC0E0BF
:200D32008C828D838EF0EF121ACBAB82E58124FCF581D004D005D006D007EB600B900000BA
:200D520075F080743F020F3BC007C006C005C004E4C0E0C0E0C0E0C0E08C828D838EF0EF98
:200D7200120F53AB82E58124FCF581D004D005D006D007EB600F751521751600900000E46A
:200D9200F5F0020F3BE5142409F54E754F007550408C828D838EF0EF121862C8E5142405DD
:200DB200C8A68208A68308A6F008F6E5142405F8E6C0E008E6C0E008E6C0E008E6C0E0908A
:200DD20014BA75F017743F120B2EAA82AB83AEF0FFE58124FCF58174A8C0E004C0E074D51D
:200DF200C0E0743EC0E08A828B838EF0EF1211B6A81408A68208A68308A6F008F6E581244C
:200E1200FCF581A81408E6C0E008E6C0E008E6C0E008E6C0E0E5142405F88682088683081F
:200E320086F008E6121960AA82AB83AEF0FFE58124FCF581C002C003C006C007A814088662
:200E5200820886830886F008E61211B6AF82AE83ADF0FCE58124FCF581754EFE754FFF8F9E
:200E7200828E838DF0ECC007C006C005C0041212B7A81408A68208A68308A6F008F6E514C1
:200E92002405F886820886830886F008E6121960AC82AD83AEF0FFE58124FCF581C004C094
:200EB20005C006C007A8140886820886830886F008E61211B6AC82AD83AEF0FFE58124FCEB
:200ED200F581E5142409F8E630E02BC004C005C006C0079004F375F035743F120B2EAC82E8
:200EF200AD83AEF0FFE58124FCF581E5142409F806B600020806754E02754F00E51424097E
:200F1200F88682088683C007C006C005C004121A5085824E85834FD004D005D006D0078C8E
:0F0F3200828D838EF0EF1212B7851481D01422B6
:120F4100AA82AB83A2F73392D1F5826002D2F7ACF022B5
:200F5300FFA8811818121369D2D133E6400730E70B7582002220E70675820122C2D112137B
:100F73004BE97003F5822220D101B3E433F58222D9
:200F830085820C85830D85F00EF50F850CF0E50D42F0E50E42F0E50F547F45F0701F8508BD
:200FA300F0E50942F0E50A42F0E50B547F45F0700C751521F516900000E4F5F02285088249
:200FC300850983850AF0E50B12120FA882A983AAF0FB850C82850D83850EF0E50FC003C04E
:200FE30002C001C00012120FAC82AD83AEF0FFD000D001D002D003C004C005C006C0078859
:201003008289838AF0EB120F53E58124FCF581E58224FF920050030210EFC008C009C00A9F
:20102300C00B850C82850D83850EF0E50F121960AC82AD83AEF0FFE58124FCF5818C828D26
:20104300838EF0EF1213F3AC82AD83AEF0FFC007C006C005C004E4C0E0C0E0C0E0C0E0858B
:201063000882850983850AF0E50B120F53AB82E58124FCF581D004D005D006D007EB700312
:20108300021185C007C006C005C004E4C0E0C0E0C0E0C0E0850C82850D83850EF0E50F128A
:2010A3000F53E58124FCF581D004D005D006D007E58224FF9200400A78DB790F7A497B40BA
:2010C300800878DB790F7A497BC0C000C001C002C0038C828D838EF0EF1211B6AC82AD83E4
:2010E300AEF0FFE58124FCF581021185C00CC00DC00EC00F850882850983850AF0E50B12E5
:201103001960A882A983AAF0FBE58124FCF581888289838AF0EB1213F3A882A983AAF0FBEE
:20112300881089118A12EBB2E7F513E4C0E0C0E0C0E0C0E0850C82850D83850EF0E50F123D
:201143000F53AB82E58124FCF581EB600A78DB790F7AC97BBF800878DB790F7AC97B3FC034
:2011630000C001C002C0038510828511838512F0E5131211B6AC82AD83AEF0FFE58124FC1D
:0A118300F5818C828D838EF0EF223F
:20118D007A10E4FBFCE58225E0F582E58333F583EB33FBEC33FCEB954EF5F0EC954F4006EA
:0911AD00FCABF0438201DADD2203
:200081007800E84400600A790175A000E4F309D8FC7828E84400600C7901900001E4F0A354
:0400A100D8FCD9FAB4
:2011B600120C367900E583B58202800D5003121946E583C39582121A88E5D0C465D020E1B5
:2011D60017EA2DFAEB3EFBEC3FFC50097401121A88EC4480FC0218F7C3EA9DFAEB9EFBEC93
:1911F6009FFC500FC3E499F9E49AFAE49BFBE49CFCB2D1120C640218F729
:20120F00C014858114AC82AD83AEF0FFE5812404F581AB140B8B01A70409A70509A706095D
:20122F00A7078B018B00860408860508860608860753077FA70409A70509A70609A7078B63
:19124F000187040987050987060987078C828D838EF0EF851481D014228D
:20126800F9C2D530E715D2D5E4C39582F582E49583F583E495F0F5F0E499F9E55130E71534
:20128800E4C3954EF54EE4954FF54FE49550F550E49551F551E9120AAB30D512E4C39582CA
:0F12A800F582E49583F583E495F0F5F0E499225F
:2012B700AC82AD83AEF0FF8C508D518E528F53AC50AD51AE52AF538E04EFA2E7CC33CC339C
:2012D700CC540130E00244FE3395E08C54755500755600755700AA4EE54FFB3395E0FEFFCD
:2012F700EA2554FAEB3555EE3556EF35577B008A56EB5401A2E0C55613C55613C556F55731
:20131700755400755500AC50AD51AE52AF5353067F530780E5564206E55742078C508D51B3
:141337008E528F53AC50AD51AE52AF538C828D838EF0EF2237
:20134B007901AA82E68F82B5821318E6B5F00E18E6B5830918E68A82B58202790022B48099
:20136B000FE5F0700AE5837006E58270027F00EFB6801518B6001018B6000B18B600060801
:09138B0008087600220808082277
:20139400FBC2D530E715D2D5E4C39582F582E49583F583E495F0F5F0E49BFBE55130E717FF
:2013B400B2D5E4C3954EF54EE4954FF54FE49550F550E49551F551EB120BD130D513FBE4CB
:1213D400C39582F582E49583F583E495F0F5F0E49B2253
:0D13E600AC83AB827A007900748E021A2C61
:2013F300C014858114C082C083C0F0C0E0E581240EF581E5142411F8E4F608F6A8140886C1
:20141300820886830886F008E612120FC8E514240DC8A68208A68308A6F008F6E514240DAE
:20143300F8E6C0E008E6C0E008E6C0E008E6C0E090000075F080743F120F53AB82E581241E
:20145300FCF581EB603FE514240DF8E6C0E008E6C0E008E6C0E008E6C0E090000075F080B6
:20147300743F121960C8E514240DC8A68208A68308A6F008F6E58124FCF581E5142411F84A
:201493007602087600E514240DF8E6C0E008E6C0E008E6C0E008E6C0E09030A375F089742C
:2014B3003E120F53AB82E58124FCF581EB70030215B3E514240DF8E6C0E008E6C0E008E6F2
:2014D300C0E008E6C0E09067AF75F03B743F120B2EAA82AB83AEF0FFE58124FCF581E4C0F0
:2014F300E0C0E07480C0E0743FC0E08A828B838EF0EF120AA0AC82AD83AEF0FFE58124FCAE
:20151300F581E514240DF8E6C0E008E6C0E008E6C0E008E6C0E08C828D838EF0EF1211B68C
:20153300C8E5142405C8A68208A68308A6F008F6E58124FCF58174D7C0E074B3C0E074DDF2
:20155300C0E0743FC0E0E514240DF886820886830886F008E61211B6AA82AB83AEF0FFE529
:201573008124FCF581C002C003C006C007E5142405F886820886830886F008E6121960C83D
:20159300E514240DC8A68208A68308A6F008F6E58124FCF581E5142411F806B60002080663
:2015B300E514240DF886820886830886F008E612120FAC82AD83AEF0FFE4C0E0C0E074802B
:2015D300C0E07439C0E08C828D838EF0EF120F53AF82E58124FCF581EF601BE514240DF853
:2015F300E5142409F9E6F708E609F708E609F708E609F70217A7E514240DF8E6C0E008E6BC
:20161300C0E008E6C0E008E6C0E0E514240DF886820886830886F008E6120B2EAF82AE83A7
:20163300ADF0FCE58124FCF581C007C006C005C004C007C006C005C00490869175F0507406
:20165300BD120B2EC8E5142405C8A68208A68308A6F008F6E58124FCF58174F6C0E074103E
:20167300C0E074F1C0E074BEC0E0E5142405F886820886830886F008E61211B6C8E5142483
:2016930005C8A68208A68308A6F008F6E58124FCF581D004D005D006D007C007C006C005D1
:2016B300C004C007C006C005C004E5142405F886820886830886F008E6120B2EC8E514246E
:2016D30005C8A68208A68308A6F008F6E58124FCF581E514240DF8E6C0E008E6C0E008E615
:2016F300C0E008E6C0E0E5142405F886820886830886F008E6120B2EC8E5142405C8A682E5
:2017130008A68308A6F008F6E58124FCF581D004D005D006D00774D3C0E074CCC0E074B4A8
:20173300C0E0743FC0E08F828E838DF0EC1211B6AF82AE83ADF0FCE58124FCF581C007C0C1
:2017530006C005C004E5142405F886820886830886F008E6121960AF82AE83ADF0FCE5815C
:2017730024FCF581C007C006C005C004E514240DF886820886830886F008E61211B6C8E57D
:20179300142409C8A68208A68308A6F008F6E58124FCF581E5142411F8C37401967480084C
:2017B30086F063F08095F0500FE5142409F8E608E608E608E6B2E7F6E5142411F8E626FA60
:2017D30008E633FBEA2AFAEB33FBEA24FBF582EB341AF583E493FAA3E493FBA3E493FEA341
:2017F300E493FFC002C003C006C007E5142409F886820886830886F008E61211B6AC82ADF7
:2018130083AEF0FFE58124FCF581C007C006C005C004E4C0E0C0E0C0E0C0E0A81408868253
:201833000886830886F008E6120F53AB82E58124FCF581D004D005D006D007EB6004EFB235
:0F185300E7FF8C828D838EF0EF851481D01422F5
:101AFB0000000000920A063FDB0FC93F920A863FA7
:20186200AC82AD83AEF0FF8C518D528E538F54AC51AD52AE53AF548E04EFA2E7CC33CC33E3
:20188200CC540130E00244FE3395E0E4FDFEFFEC2482F555ED34FFF556EE34FFF557EF3474
:2018A200FFF558AA4EAB4FAF50AC55AD568A828B838FF0EC121ADCA3ED121ADCAC51AD52C4
:2018C200AE53AF5453067F5307808C518D528E538F54AC51AD52AE53AF5443073F8C518DDD
:1518E200528E538F54AC51AD52AE53AF548C828D838EF0EF222E
:2018F700B98003EA13B34010EA2401FAE43BFBE43CFC50047C800582BC000EBB000BBA0035
:2019170008E4F5F0F583F58222A2D1E582138CF092F78B838A8222E4F583F58275F080F4F4
:0F193700A2D11322E4F583F58275F0C0747F22EC
:1A194600E582C583F582A2D133A2D592D11392D5ECCFFCEBCEFBEACDFA2229
:20196000120C3630D502B2D1BF0009BC000302193B02192EBC0003021918E583B4FF0BE566
:2019800082B4FF0302193B021918E582B4FF0302192EC395835007247F400B021918248029
:2019A00014500302192EF582C3ED9AEE9BEF9C40111582C3EA33F9EB33FAEC33FBE433FC9C
:2019C0008005E4CCCBCAF9C08275F019C3E99DEA9EEB9FEC9400D5F002802D400EE99DF968
:2019E000EA9EFAEB9FFBEC9400FCC3B3E833F8E58233F582E58333F583C3E933F9EA33FAC8
:201A0000EB33FBEC33FC80C4B3E4F938FAE43582FBE43583FCD082500405827C80120C64B3
:031A200002190F99
:0D004C00758158121AF7E582600302004921
:201A2300FCABF0AA83A982749EF582C2D1EC30E716D2D1E9F42401F9EAF43400FAEBF434C2
:0D1A430000FBECF43400FC120C640218F7F8
:201A5000C2D5E58330E70DD2D5E4C39582F582E49583F583E54F30E70DB2D5E4C3954EF5A5
:181A70004EE4954FF54F12118D30D50BE4C39582F582E49583F5832279
:201A88006040F82582500274FFF582E824F8501ECCCBCAF9E4CC24F85014CBCAF9E4CB2466
:201AA800F8500BCAF9E4CA24F8500379002224086010F8C3EC13FCEB13FBEA13FAE913F919
:031AC800D8F12230
:111ACB00FFA881181812136912134BE96401F58222CD
:1B1ADC0020F71130F6138883A88220F509F6A8837583002280FEF280F5F02209
:041AF70075820022D2
:00000001FF
