:0300000002004CAF
:100008000000E2FBEAF2802C0000E0FBEAF080242A
:10001800E6B50202EBF62200E2B50202EBF222009C
:10002800E0B50202EBF02230F6E0A88220F5D3EA30
:10003800C6F582228B822230F6E6A88220F5D98086
:01004800CFE8
:1000A5007542007543007544007545007546007539
:0500B500470F020049A5
:030049000202FEB2
:1000BA007F017E00EE24FD5003020149EFF4F59022
:1000CA00AC905304F0E4CCC4540F6CCC540FCC6CF9
:1000DA00CC30E30244F0ECF4FC740F5CFDBD081B69
:1000EA00BF0102800ABF02028009BF040E800875A0
:1000FA00820C2275820D2275820E22ED603ABF01B2
:10010A00047C018010BF02047C028009BF04047CC5
:10011A000380027C00EC1475F003A4FCBD01047B8F
:10012A00018010BD02047B028009BD04047B0380A8
:10013A00027B00EB2CF58222EF2FFF0E0200BEEFAE
:10014A00F4F590AE905306F0E4CEC4540F6ECE543C
:10015A000FCE6ECE30E30244F0EEF4FE740F5EFF73
:10016A0070047582FF22BF010475820A22BF02044D
:10017A0075820022BF040475820B227582FF22E574
:10018A00827F00C2B53392B3D2B50FBF080040F3E5
:10019A0022E5821392A51392A622AF82D2A78F825A
:1001AA00120189852182120189C2A722AF82C00762
:1001BA00C022C023C024C02590000075F0C8744234
:1001CA00120C88AB82AC83ADF0FEE58124FCF5818C
:1001DA008B828C838DF0EE120DF185822785832820
:1001EA0085F029F52AD0078F8212019B7F06EF60DE
:1001FA006C75510AE4F552F553F554852782852822
:10020A00838529F0E52AC0071213C2A882A983D0E0
:10021A000775510AE4F552F553F554852782852866
:10022A00838529F0E52AC007C001C0001214EE85B3
:10023A00822785832885F029F52AD000D001D007A6
:10024A00BF0408748048FD89068004880589068DE4
:10025A00218F82C0071201A4D0071F8091AF268F79
:10026A000675F00AEE84F521758207C0071201A40B
:10027A00D00775F00AEF84AFF08F2175820802016A
:10028A00A4E5827F00C2B41392B2D2B40FBF0400B5
:10029A0040F3228582993099FDC29922858299304C
:1002AA0099FDC2998583993099FDC29985F0993053
:1002BA0099FDC299F5993099FDC299223098FDC2EB
:1002CA0098859982223098FDC2988599513098FD77
:1002DA00C2987852A6993098FDC2987853A6993058
:1002EA0098FDC2987854A699855182855283855380
:1002FA00F0E5542275480090002DE4F0A3F0A3F035
:10030A00A3F0900031F0A3F0A3F0A3F0900035F031
:10031A00A3F0A3F0A3F0438920758DFD758BFDD260
:10032A008E75985075820912029D1202CFAB82AC6B
:10033A0083ADF0FE900025EBF0ECA3F0EDA3F0EE18
:10034A00A3F05389F0438901758C00758A00C2A90C
:10035A00C2AFD28C7E018E82C00612019B7521012A
:10036A0075820C1201A475210075820F1201A47501
:10037A0021FF7582091201A475210775820B1201EA
:10038A00A475210F75820A1201A4D0060EEE24FC70
:10039A0050C475822012029D1202CFAB82AC83AD8B
:1003AA00F0FE900021EBF0ECA3F0EDA3F0EEA3F049
:1003BA001202CFAB82AC83ADF0FE900001EBF0EC01
:1003CA00A3F0EDA3F0EEA3F01202CFAB82AC83ADA3
:1003DA00F0FE900005EBF0ECA3F0EDA3F0EEA3F035
:1003EA001202CFAB82AC83ADF0FE900009EBF0ECC9
:1003FA00A3F0EDA3F0EEA3F01202CFAB82AC83AD73
:10040A00F0FE90000DEBF0ECA3F0EDA3F0EEA3F0FC
:10041A001202CFAB82AC83ADF0FE900011EBF0EC90
:10042A00A3F0EDA3F0EEA3F01202CFAB82AC83AD42
:10043A00F0FE900015EBF0ECA3F0EDA3F0EEA3F0C4
:10044A001202CFAB82AC83ADF0FE900019EBF0EC58
:10045A00A3F0EDA3F0EEA3F01202CFAB82AC83AD12
:10046A00F0FE90001DEBF0ECA3F0EDA3F0EEA3F08C
:10047A00900021E0C0E0A3E0C0E0A3E0C0E0A3E078
:10048A00C0E090000075F0F07441120BFA85823ECC
:10049A0085833F85F040F541E58124FCF581E4C080
:1004AA00E0C0E07440C0E0C0E0853E82853F8385BD
:1004BA0040F0E5411210ADAE82E58124FCF581EEF3
:1004CA00600BE4F53EF53F754040754140C03EC0C3
:1004DA003FC040C041853E82853F838540F0E5416B
:1004EA00120C88AB82AC83ADF0FEE58124FCF58169
:1004FA00C003C004C005C00690000075F04074C176
:10050A00121ABA85824985834A85F04BF54CE581F2
:10051A0024FCF581C03EC03FC040C0419000007439
:10052A00C0F5F0121ABA85824D85834E85F04FF5D3
:10053A0050E58124FCF581900001E0C0E0A3E0C011
:10054A00E0A3E0C0E0A3E0C0E0854982854A838554
:10055A004BF0E54C120C88A882A983AAF0FFE5812A
:10056A0024FCF581C007C002C001C000900009E068
:10057A00C0E0A3E0C0E0A3E0C0E0A3E0C0E0854D96
:10058A0082854E83854FF0E550120C88AB82AC838E
:10059A00ADF0FEE58124FCF581D000D001D002D077
:1005AA0007C003C004C005C006888289838AF0EFA9
:1005BA0012131085823685833785F038F539E5813F
:1005CA0024FCF581900005E0C0E0A3E0C0E0A3E0D0
:1005DA00C0E0A3E0C0E0854982854A83854BF0E507
:1005EA004C120C88AC82AD83AEF0FFE58124FCF599
:1005FA0081C007C006C005C00490000DE0C0E0A39A
:10060A00E0C0E0A3E0C0E0A3E0C0E0854D82854EF3
:10061A0083854FF0E550120C88A882A983AAF0FBC3
:10062A00E58124FCF581D004D005D006D007C000AE
:10063A00C001C002C0038C828D838EF0EF121310AA
:10064A00AC82AD83AEF0FFE58124FCF581900025F4
:10065A00E0C0E0A3E0C0E0A3E0C0E0A3E0C0E08C1B
:10066A00828D838EF0EF120BFA85823A85833B8561
:10067A00F03CF53DE58124FCF581C036C037C03831
:10068A00C0398536828537838538F0E539120C887A
:10069A00AC82AD83AEF0FFE58124FCF581C007C0D2
:1006AA0006C005C004C03AC03BC03CC03D853A8282
:1006BA00853B83853CF0E53D120C88A882A983AA74
:1006CA00F0FBE58124FCF581D004D005D006D007E3
:1006DA00C000C001C002C0038C828D838EF0EF126D
:1006EA001310AC82AD83AEF0FFE58124FCF5818C5A
:1006FA00828D838EF0EF120E4CAC82AD83AEF0FF8A
:10070A00900019E0C0E0A3E0C0E0A3E0C0E0A3E0ED
:10071A00C0E08C828D838EF0EF121ABA85822E8504
:10072A00832F85F030F531E58124FCF581852EF0A3
:10073A00E52F42F0E53042F0E531547F45F0700391
:10074A000209C0AC3AAD3BAE3CAF3DA836A937AAC8
:10075A0038AB398C088D098E0AEFB2E7F50B88821F
:10076A0089838AF0EB1210DDAC82AD83AEF0FF9084
:10077A000011E0C0E0A3E0C0E0A3E0C0E0A3E0C055
:10078A00E08C828D838EF0EF120BFAAC82AD83AED1
:10079A00F0FFE58124FCF581C007C006C005C0044E
:1007AA00C004C005C006C007900FDB75F04974404D
:1007BA001210ADAB82E58124FCF581D004D005D0BE
:1007CA0006D007EB602974DBC0E0740FC0E074C97F
:1007DA00C0E07440C0E08C828D838EF0EF120BFA79
:1007EA00AC82AD83AEF0FFE58124FCF581805CC06C
:1007FA0007C006C005C00474DBC0E0740FC0E07413
:10080A0049C0E074C0C0E08C828D838EF0EF121074
:10081A00ADAB82E58124FCF581D004D005D006D0A9
:10082A0007EB602774DBC0E0740FC0E074C9C0E056
:10083A007440C0E08C828D838EF0EF121310AC826C
:10084A00AD83AEF0FFE58124FCF5818C828D838E29
:10085A00F0EFC007C006C005C004121369A882A938
:10086A0083AAF0FBC000C001C002C00390CCCD75C2
:10087A00F04C743F120C88A882A983AAF0FBE58188
:10088A0024FCF58190001DE0C0E0A3E0C0E0A3E0F5
:10089A00C0E0A3E0C0E0888289838AF0EB120C886A
:1008AA00A882A983AAF0FBE58124FCF581C02EC0A9
:1008BA002FC030C031888289838AF0EB120C88A855
:1008CA0082A983AAF0FBE58124FCF58188828983C9
:1008DA008AF0EB120E4CA882A983AAF0FBD004D0AE
:1008EA0005D006D007C003C002C001C000E4C0E0C2
:1008FA00C0E0C0E0C0E08C828D838EF0EF1210ADB4
:10090A00AF82E58124FCF581D000D001D002D0036A
:10091A00EF60067EFF7FFF80047E017F008E828F5C
:10092A0083C003C002C001C000121540AC82AD836F
:10093A00AEF0FFD000D001D002D003C004C005C081
:10094A0006C007888289838AF0EB120C88AC82ADD4
:10095A0083AEF0FFE58124FCF581900015E0F8A351
:10096A00E0F9A3E0FAA3E0FBC004C005C006C00793
:10097A00888289838AF0EB120BFAAC82AD83AEF0DF
:10098A00FFE58124FCF58190001DE0C0E0A3E0C0F2
:10099A00E0A3E0C0E0A3E0C0E08C828D838EF0EF9C
:1009AA00121ABA85823285833385F034F535E581AA
:1009BA0024FCF5818009E4F532F533F534F5357513
:1009CA00822112029D852E82852F838530F0E531A2
:1009DA001202A68532828533838534F0E535120208
:1009EA00A605487405B548028003020B1C75480029
:1009FA00900035E4F0A3F0A3F0A3F0900031F0A347
:100A0A00F0A3F0A3F090002DF0A3F0A3F0A3F0E57B
:100A1A0043600553470E800343470185478212020C
:100A2A008B7410B52C028003020ACB7401B52D0217
:100A3A0080077402B52D34801490002DE53EF0E550
:100A4A003FA3F0E540A3F0E541A3F0801E75820ABA
:100A5A0012029D1202CFAC82AD83AEF0FF90002D40
:100A6A00ECF0EDA3F0EEA3F0EFA3F090000DE0FCA4
:100A7A00A3E0FDA3E0FEA3E08C828D838EF0121327
:100A8A0069AC82AD83AEF0FF900031ECF0EDA3F0DB
:100A9A00EEA3F0EFA3F0900005E0FCA3E0FDA3E0D5
:100AAA00FEA3E08C828D838EF0121369AC82AD8333
:100ABA00AEF0FF900035ECF0EDA3F0EEA3F0EFA35B
:100ACA00F090002DE0F522A3E0F523A3E0F524A39E
:100ADA00E0F5258544267582011201B6900031E0C1
:100AEA00F522A3E0F523A3E0F524A3E0F525854547
:100AFA00267582021201B6900035E0F522A3E0F5D0
:100B0A0023A3E0F524A3E0F5258546267582031282
:100B1A0001B61200BAAF82BFFF0675420002039CFB
:100B2A00E542600302039C754201BF0A2A7401B5BB
:100B3A00430280117402B5430280107403B5430264
:100B4A00800F02039C75440002039C754500020352
:100B5A009C75460002039CBF0B2FE54324FC4023EF
:100B6A00E54375F003A4900B747302039C020B8097
:100B7A00020B85020B8A85442B800885452C80034D
:100B8A0085462D75430002039CBF0C097544007508
:100B9A00430102039CBF0D09754500754302020318
:100BAA009CBF0E0975460075430302039CE543701A
:100BBA000302039C7401B5430280117402B5430217
:100BCA0080167403B54302801B02039CE54475F04A
:100BDA000AA42FF54402039CE54575F00AA42FF5F3
:100BEA004502039CE54675F00AA42FF54602039CCC
:100BFA00A8811818C6B2E7C6021310F9E551455282
:100C0A004553455460777800C308E55420E73BE52F
:100C1A005125E0F551E55233F552E55333F553E5E5
:100C2A005433F554E5829551E5839552E5F0955391
:100C3A00E9955450D4C3E55413F554E55313F553C9
:100C4A00E55213F552E55113F551E5829551FCE54C
:100C5A00839552FDE5F09553FEE995544007F98EC8
:100C6A00F08D838C82C3E55413F554E55313F55381
:100C7A00E55213F552E55113F551D8CEE922120D7A
:100C8A0090BC0003021A72EF60FA30D502B2D1E5C5
:100C9A0083B4FF03021A88E582B4FF03021A882587
:100CAA008340072482400B021A72248314500302E1
:100CBA001A88F582EA8DF0A4A8F0EA8EF0A428F842
:100CCA00E435F0F9EB8DF0A428E935F0F9E433CAFC
:100CDA008FF0A429F9EA35F0FAEBF88EF0A429F995
:100CEA00EA35F0FAE433FBEC8DF0A429F9EA35F0A1
:100CFA00FAE43BFBE88FF0A42AFAEB35F0FBE43385
:100D0A00CCFD8EF0A42AFAEB35F0FBE43CFCED8F27
:100D1A00F0A42BFBEC35F0FC20E703120DBE021AFF
:100D2A0051FB7A20E4FCFDFEFFE5822582F582E58F
:100D3A008333F583E5F033F5F0EB33FB4017DAE95B
:100D4A008042E5822582F582E58333F583E5F03337
:100D5A00F5F0EB33FBEC33FCED33FDEE33FEEF3312
:100D6A00FFEC9551ED9552EE9553EF95544013ECE7
:100D7A009551FCED9552FDEE9553FEEF9554FF43C8
:100D8A008201DABEEB22AA82AB83A2F73392D1F5B3
:100D9A00826002D2F7ACF0E58124F9F8E6FD08E6B4
:100DAA00FE0886F008E6A2F73392D5F5836002D2F0
:040DBA00F7AFF0227D
:06007B00E478FFF6D8FD59
:100DBE007804EC7011E58224F8500AF582E4C9CA71
:100DCE00CBFCD8EF22EC7820058220E713D58201E8
:100DDE0022C3E933F9EA33FAEB33FBEC33FCD8EAFE
:100DEE0015822212109BC3749E958240397900128F
:100DFE001BE230D126E9F42401F582EAF43400F541
:100E0E0083EBF43400F5F0ECF43400700AE582451F
:100E1E008345F0700122E430E70F22EC20E71489BD
:100E2E00828A838BF02230D10AE4F582F583F5F0C5
:0E0E3E0074802274FFF582F583F5F0747F2234
:100059007900E94400601B7A00901C65783975A025
:1000690000E493F2A308B8000205A0D9F4DAF27506
:02007900A0FFE6
:100E4C00C014858114AC82AD83AEF0FFE581240A19
:100E5C00F5818CF0ED42F0EE42F0EF547F45F070EE
:100E6C000A8C828D838EF0EF021095C007C006C0ED
:100E7C0005C004E4C0E0C0E07480C0E0743FC0E092
:100E8C008C828D838EF0EF121C25AB82E58124FCC5
:100E9C00F581D004D005D006D007EB600B90000094
:100EAC0075F080743F021095C007C006C005C004E1
:100EBC00E4C0E0C0E0C0E0C0E08C828D838EF0EF37
:100ECC001210ADAB82E58124FCF581D004D005D0A5
:100EDC0006D007EB600F751521751600900000E425
:100EEC00F5F0021095E5142409F55175520075536F
:100EFC00408C828D838EF0EF1219BCC8E51424054A
:100F0C00C8A68208A68308A6F008F6E5142405F8FE
:100F1C00E6C0E008E6C0E008E6C0E008E6C0E09005
:100F2C0014BA75F017743F120C88AA82AB83AEF01A
:100F3C00FFE58124FCF58174A8C0E004C0E074D501
:100F4C00C0E0743EC0E08A828B838EF0EF121310E7
:100F5C00A81408A68208A68308A6F008F6E5812442
:100F6C00FCF581A81408E6C0E008E6C0E008E6C07D
:100F7C00E008E6C0E0E5142405F8868208868308BC
:100F8C0086F008E6121ABAAA82AB83AEF0FFE581AE
:100F9C0024FCF581C002C003C006C007A814088653
:100FAC00820886830886F008E6121310AF82AE839F
:100FBC00ADF0FCE58124FCF5817551FE7552FF8F77
:100FCC00828E838DF0ECC007C006C005C0041214DD
:100FDC0011A81408A68208A68308A6F008F6E51442
:100FEC002405F886820886830886F008E6121ABA69
:100FFC00AC82AD83AEF0FFE58124FCF581C004C06A
:10100C0005C006C007A8140886820886830886F0E7
:10101C0008E6121310AC82AD83AEF0FFE58124FC20
:10102C00F581E5142409F8E630E02BC004C005C0B6
:10103C0006C0079004F375F035743F120C88AC822F
:10104C00AD83AEF0FFE58124FCF581E5142409F8AD
:10105C0006B600020806755102755200E514240903
:10106C00F88682088683C007C006C005C004121B20
:10107C00AA858251858352D004D005D006D0078C26
:10108C00828D838EF0EF121411851481D01422AA54
:10109C0082AB83A2F73392D1F5826002D2F7ACF027
:1010AC0022FFA88118181214C3D2D133E64007309E
:1010BC00E70B7582002220E70675820122C2D1124D
:1010CC0014A5E97003F5822220D101B3E433F58233
:1010DC002285820C85830D85F00EF50F850CF0E5CD
:1010EC000D42F0E50E42F0E50F547F45F0701F8580
:1010FC0008F0E50942F0E50A42F0E50B547F45F0B3
:10110C00700C751521F516900000E4F5F022850899
:10111C0082850983850AF0E50B121369A882A983DD
:10112C00AAF0FB850C82850D83850EF0E50FC003BC
:10113C00C002C001C000121369AC82AD83AEF0FFD7
:10114C00D000D001D002D003C004C005C006C00737
:10115C00888289838AF0EB1210ADE58124FCF5813D
:10116C00E58224FF92005003021249C008C009C056
:10117C000AC00B850C82850D83850EF0E50F121AC3
:10118C00BAAC82AD83AEF0FFE58124FCF5818C8294
:10119C008D838EF0EF12154DAC82AD83AEF0FFC097
:1011AC0007C006C005C004E4C0E0C0E0C0E0C0E079
:1011BC00850882850983850AF0E50B1210ADAB8298
:1011CC00E58124FCF581D004D005D006D007EB7066
:1011DC00030212DFC007C006C005C004E4C0E0C0B3
:1011EC00E0C0E0C0E0850C82850D83850EF0E50F34
:1011FC001210ADE58124FCF581D004D005D006D0C9
:10120C0007E58224FF9200400A78DB790F7A497B4C
:10121C0040800878DB790F7A497BC0C000C001C0E0
:10122C0002C0038C828D838EF0EF121310AC82AD52
:10123C0083AEF0FFE58124FCF5810212DFC00CC007
:10124C000DC00EC00F850882850983850AF0E50B59
:10125C00121ABAA882A983AAF0FBE58124FCF581B5
:10126C00888289838AF0EB12154DA882A983AAF093
:10127C00FB881089118A12EBB2E7F513E4C0E0C0C9
:10128C00E0C0E0C0E0850C82850D83850EF0E50F93
:10129C001210ADAB82E58124FCF581EB600A78DBA2
:1012AC00790F7AC97BBF800878DB790F7AC97B3FCD
:1012BC00C000C001C002C003851082851183851255
:1012CC00F0E513121310AC82AD83AEF0FFE5812470
:1012DC00FCF5818C828D838EF0EF227A10E4FBFC7E
:1012EC00E58225E0F582E58333F583EB33FBEC33C4
:1012FC00FCEB9551F5F0EC95524006FCABF04382BB
:04130C0001DADD2203
:100081007800E84400600A790175A000E4F309D81A
:10009100FC7838E84400600C7901900001E4F0A399
:0400A100D8FCD9FAB4
:10131000120D907900E583B58202800D5003121AF8
:10132000A0E583C39582121BE2E5D0C465D020E11D
:1013300017EA2DFAEB3EFBEC3FFC50097401121B3F
:10134000E2EC4480FC021A51C3EA9DFAEB9EFBECEE
:101350009FFC500FC3E499F9E49AFAE49BFBE49CE8
:10136000FCB2D1120DBE021A51C014858114AC8298
:10137000AD83AEF0FFE5812404F581AB140B8B0146
:10138000A70409A70509A70609A7078B018B0086F3
:101390000408860508860608860753077FA7040900
:1013A000A70509A70609A7078B018704098705096F
:1013B00087060987078C828D838EF0EF851481D094
:1013C0001422F9C2D530E715D2D5E4C39582F5824F
:1013D000E49583F583E495F0F5F0E499F9E554306C
:1013E000E715E4C39551F551E49552F552E4955350
:1013F000F553E49554F554E9120C0530D512E4C3C5
:101400009582F582E49583F583E495F0F5F0E4990F
:1014100022AC82AD83AEF0FF8C538D548E558F5627
:10142000AC53AD54AE55AF568E04EFA2E7CC33CCDF
:1014300033CC540130E00244FE3395E08C577558AC
:1014400000755900755A00AA51E552FB3395E0FE2C
:10145000FFEA2557FAEB3558EE3559EF355A7B0040
:101460008A59EB5401A2E0C55913C55913C559F562
:101470005A755700755800AC53AD54AE55AF56531E
:10148000067F530780E5594206E55A42078C538D83
:10149000548E558F56AC53AD54AE55AF568C828D8D
:1014A000838EF0EF227901AA82E68F82B58213182B
:1014B000E6B5F00E18E6B5830918E68A82B5820211
:1014C000790022B4800FE5F0700AE5837006E582AA
:1014D00070027F00EFB6801518B6001018B6000B2A
:1014E00018B6000608080876002208080822FBC281
:1014F000D530E715D2D5E4C39582F582E49583F51E
:1015000083E495F0F5F0E49BFBE55430E717B2D5A2
:10151000E4C39551F551E49552F552E49553F553D2
:10152000E49554F554EB120D2B30D513FBE4C39521
:1015300082F582E49583F583E495F0F5F0E49B224F
:10154000AC83AB827A007900748E021B86C014854E
:101550008114C082C083C0F0C0E0E581240EF58113
:10156000E5142411F8E4F608F6A814088682088623
:10157000830886F008E6121369C8E514240DC8A68E
:101580008208A68308A6F008F6E514240DF8E6C044
:10159000E008E6C0E008E6C0E008E6C0E090000031
:1015A00075F080743F1210ADAB82E58124FCF581AB
:1015B000EB603FE514240DF8E6C0E008E6C0E00863
:1015C000E6C0E008E6C0E090000075F080743F12CD
:1015D0001ABAC8E514240DC8A68208A68308A6F086
:1015E00008F6E58124FCF581E5142411F87602085B
:1015F0007600E514240DF8E6C0E008E6C0E008E651
:10160000C0E008E6C0E09030A375F089743E121087
:10161000ADAB82E58124FCF581EB700302170DE58B
:1016200014240DF8E6C0E008E6C0E008E6C0E008D3
:10163000E6C0E09067AF75F03B743F120C88AA8259
:10164000AB83AEF0FFE58124FCF581E4C0E0C0E0AF
:101650007480C0E0743FC0E08A828B838EF0EF120A
:101660000BFAAC82AD83AEF0FFE58124FCF581E599
:1016700014240DF8E6C0E008E6C0E008E6C0E00883
:10168000E6C0E08C828D838EF0EF121310C8E51453
:101690002405C8A68208A68308A6F008F6E58124DA
:1016A000FCF58174D7C0E074B3C0E074DDC0E074B1
:1016B0003FC0E0E514240DF886820886830886F092
:1016C00008E6121310AA82AB83AEF0FFE58124FC7A
:1016D000F581C002C003C006C007E5142405F886E2
:1016E000820886830886F008E6121ABAC8E5142430
:1016F0000DC8A68208A68308A6F008F6E58124FC9A
:10170000F581E5142411F806B600020806E5142454
:101710000DF886820886830886F008E6121369AC05
:1017200082AD83AEF0FFE4C0E0C0E07480C0E0743E
:1017300039C0E08C828D838EF0EF1210ADAF82E560
:101740008124FCF581EF601BE514240DF8E51424D9
:1017500009F9E6F708E609F708E609F708E609F7E0
:10176000021901E514240DF8E6C0E008E6C0E0081F
:10177000E6C0E008E6C0E0E514240DF8868208869D
:10178000830886F008E6120C88AF82AE83ADF0FCC9
:10179000E58124FCF581C007C006C005C004C00770
:1017A000C006C005C00490869175F05074BD120C3F
:1017B00088C8E5142405C8A68208A68308A6F008F0
:1017C000F6E58124FCF58174F6C0E07410C0E07485
:1017D000F1C0E074BEC0E0E5142405F886820886F6
:1017E000830886F008E6121310C8E5142405C8A67D
:1017F0008208A68308A6F008F6E58124FCF581D0CE
:1018000004D005D006D007C007C006C005C004C07C
:1018100007C006C005C004E5142405F886820886C2
:10182000830886F008E6120C88C8E5142405C8A6CB
:101830008208A68308A6F008F6E58124FCF581E578
:1018400014240DF8E6C0E008E6C0E008E6C0E008B1
:10185000E6C0E0E5142405F886820886830886F051
:1018600008E6120C88C8E5142405C8A68208A683D9
:1018700008A6F008F6E58124FCF581D004D005D057
:1018800006D00774D3C0E074CCC0E074B4C0E07478
:101890003FC0E08F828E838DF0EC121310AF82AECA
:1018A00083ADF0FCE58124FCF581C007C006C005CE
:1018B000C004E5142405F886820886830886F008AB
:1018C000E6121ABAAF82AE83ADF0FCE58124FCF5D6
:1018D00081C007C006C005C004E514240DF8868247
:1018E0000886830886F008E6121310C8E514240958
:1018F000C8A68208A68308A6F008F6E58124FCF5B0
:1019000081E5142411F8C374019674800886F0638D
:10191000F08095F0500FE5142409F8E608E608E693
:1019200008E6B2E7F6E5142411F8E626FA08E633ED
:10193000FBEA2AFAEB33FBEA2455F582EB341CF57B
:1019400083E493FAA3E493FBA3E493FEA3E493FF5D
:10195000C002C003C006C007E5142409F886820847
:1019600086830886F008E6121310AC82AD83AEF0D1
:10197000FFE58124FCF581C007C006C005C004E472
:10198000C0E0C0E0C0E0C0E0A814088682088683FA
:101990000886F008E61210ADAB82E58124FCF581E3
:1019A000D004D005D006D007EB6004EFB2E7FF8C7F
:0C19B000828D838EF0EF851481D014220C
:101C550000000000920A063FDB0FC93F920A863F4B
:1019BC00AC82AD83AEF0FF8C548D558E568F57ACE8
:1019CC0054AD55AE56AF578E04EFA2E7CC33CC33A3
:1019DC00CC540130E00244FE3395E0E4FDFEFFEC14
:1019EC002482F558ED34FFF559EE34FFF55AEF34F7
:1019FC00FFF55BAA51AB52AF53AC58AD598A828BF1
:101A0C00838FF0EC121C36A3ED121C36AC54AD5582
:101A1C00AE56AF5753067F5307808C548D558E5658
:101A2C008F57AC54AD55AE56AF5743073F8C548DC2
:101A3C00558E568F57AC54AD55AE56AF578C828DD4
:101A4C00838EF0EF22B98003EA13B34010EA24012D
:101A5C00FAE43BFBE43CFC50047C800582BC000EA9
:101A6C00BB000BBA0008E4F5F0F583F58222A2D195
:101A7C00E582138CF092F78B838A8222E4F583F54E
:101A8C008275F080F4A2D11322E4F583F58275F00F
:101A9C00C0747F22E582C583F582A2D133A2D59290
:101AAC00D11392D5ECCFFCEBCEFBEACDFA22120D82
:101ABC009030D502B2D1BF0009BC0003021A9502C6
:101ACC001A88BC0003021A72E583B4FF0BE582B4DA
:101ADC00FF03021A95021A72E582B4FF03021A88F8
:101AEC00C395835007247F400B021A722480145034
:101AFC0003021A88F582C3ED9AEE9BEF9C401115F8
:101B0C0082C3EA33F9EB33FAEC33FBE433FC8005A4
:101B1C00E4CCCBCAF9C08275F019C3E99DEA9EEBFF
:101B2C009FEC9400D5F002802D400EE99DF9EA9EC1
:101B3C00FAEB9FFBEC9400FCC3B3E833F8E582337B
:101B4C00F582E58333F583C3E933F9EA33FAEB33F2
:101B5C00FBEC33FC80C4B3E4F938FAE43582FBE4E3
:101B6C003583FCD082500405827C80120DBE021A93
:011B7C0069FF
:0D004C0075815B121C51E5826003020049C2
:101B7D00FCABF0AA83A982749EF582C2D1EC30E74A
:101B8D0016D2D1E9F42401F9EAF43400FAEBF43475
:101B9D0000FBECF43400FC120DBE021A51C2D5E567
:101BAD008330E70DD2D5E4C39582F582E49583F5B4
:101BBD0083E55230E70DB2D5E4C39551F551E49567
:101BCD0052F5521212E730D50BE4C39582F582E43B
:101BDD009583F583226040F82582500274FFF582CB
:101BED00E824F8501ECCCBCAF9E4CC24F85014CB21
:101BFD00CAF9E4CB24F8500BCAF9E4CA24F850030F
:101C0D0079002224086010F8C3EC13FCEB13FBEAF7
:101C1D0013FAE913F9D8F122FFA88118181214C389
:101C2D001214A5E96401F5822220F71130F613880C
:101C3D0083A88220F509F6A8837583002280FEF221
:081C4D0080F5F02275820022EF
:00000001FF
